:020000040800F2
:100000000000032081330008492D00084B2D000813
:100010004D2D00084F2D0008512D00080000000054
:10002000000000000000000000000000B15F0008B8
:10003000532D00080000000051600008F95C000822
:10004000D1330008D1330008D1330008D133000880
:10005000D1330008D1330008D1330008D133000870
:10006000D1330008D1330008D1330008D133000860
:10007000D1330008D1330008D1330008D133000850
:10008000D1330008552D0008D1330008D1330008C2
:10009000652D0008752D0008D1330008D133000804
:1000A000D1330008D1330008D1330008D133000820
:1000B000852D0008D1330008D1330008D133000862
:1000C000D1330008D1330008D1330008D133000800
:1000D000D1330008952D0008D1330008D133000832
:1000E000D1330008D1330008D1330008D1330008E0
:1000F000D1330008D1330008D1330008D1330008D0
:10010000D1330008D1330008D1330008D1330008BF
:10011000D1330008D1330008A52D0008B52D000803
:10012000D1330008C52D0008D52D0008D1330008B3
:10013000D1330008D1330008D1330008D13300088F
:10014000E52D0008F52D0008D1330008D133000853
:10015000D1330008052E0008D1330008152E000801
:10016000D1330008D1330008D1330008D13300085F
:10017000D1330008D1330008D1330008000000005B
:10018000D1330008D1330008D1330008252E0008F0
:10019000D1330008D1330008D1330008D13300082F
:0C01A0000000000000000000D133000847
:1001C00081F0004102E000BF83F0004330B54FEA08
:1001D00041044FEA430594EA050F08BF90EA020F75
:1001E0001FBF54EA000C55EA020C7FEA645C7FEA08
:1001F000655C00F0E2804FEA5454D4EB5555B8BF2B
:100200006D420CDD2C4480EA020281EA030382EA9B
:10021000000083EA010180EA020281EA0303362D2D
:1002200088BF30BD11F0004F4FEA01314FF4801C00
:100230004CEA113102D0404261EB410113F0004F12
:100240004FEA03334CEA133302D0524263EB4303C9
:1002500094EA050F00F0A780A4F10104D5F1200E67
:100260000DDB02FA0EFC22FA05F2801841F10001C2
:1002700003FA0EF2801843FA05F359410EE0A5F196
:1002800020050EF1200E012A03FA0EFC28BF4CF0C7
:10029000020C43FA05F3C01851EBE37101F000457D
:1002A00007D54FF0000EDCF1000C7EEB00006EEB8A
:1002B0000101B1F5801F1BD3B1F5001F0CD3490814
:1002C0005FEA30004FEA3C0C04F101044FEA44526B
:1002D00012F5800F80F09A80BCF1004F08BF5FEAF2
:1002E000500C50F1000041EB045141EA050130BDD2
:1002F0005FEA4C0C404141EB0101013C28BFB1F5E4
:10030000801FE9D291F0000F04BF01460020B1FA2E
:1003100081F308BF2033A3F10B03B3F120020CDA01
:100320000C3208DD02F1140CC2F10C0201FA0CF0DF
:1003300021FA02F10CE002F11402D8BFC2F1200C44
:1003400001FA02F120FA0CFCDCBF41EA0C019040FA
:10035000E41AA2BF01EB0451294330BD6FEA040443
:100360001F3C1CDA0C340EDC04F11404C4F120022E
:1003700020FA04F001FA02F340EA030021FA04F340
:1003800045EA030130BDC4F10C04C4F1200220FA97
:1003900002F001FA04F340EA0300294630BD21FAD5
:1003A00004F0294630BD94F0000F83F4801306BF9B
:1003B00081F480110134013D4EE77FEA645C18BF8F
:1003C0007FEA655C29D094EA050F08BF90EA020F26
:1003D00005D054EA000C04BF1946104630BD91EA1E
:1003E000030F1EBF0021002030BD5FEA545C05D121
:1003F0004000494128BF41F0004130BD14F5800460
:100400003CBF01F5801130BD01F0004545F0FE41D3
:1004100041F470014FF0000030BD7FEA645C1ABF08
:10042000194610467FEA655C1CBF0B46024650EA3F
:10043000013406BF52EA033591EA030F41F400216B
:1004400030BD00BF90F0000F04BF0021704730B5F1
:100450004FF4806404F132044FF000054FF00001C6
:1004600050E700BF90F0000F04BF0021704730B587
:100470004FF4806404F1320410F0004548BF40425C
:100480004FF000013EE700BF42004FEAE2014FEAB1
:1004900031014FEA02701FBF12F07F4393F07F4F8C
:1004A00081F06051704732F07F4208BF704793F08F
:1004B0007F4F04BF41F40021704730B54FF46074A2
:1004C00001F0004521F000411CE700BF50EA0102A5
:1004D00008BF704730B54FF000050AE050EA01024E
:1004E00008BF704730B511F0004502D5404261EBBE
:1004F00041014FF4806404F132045FEA915C3FF4FF
:10050000D8AE4FF003025FEADC0C18BF03325FEA9B
:10051000DC0C18BF033202EBDC02C2F1200300FA4C
:1005200003FC20FA02F001FA03FE40EA0E0021FA71
:1005300002F11444BDE600BF70B54FF0FF0C4CF45F
:10054000E06C1CEA11541DBF1CEA135594EA0C0F11
:1005500095EA0C0F00F0DEF82C4481EA030621EA4C
:100560004C5123EA4C5350EA013518BF52EA033587
:1005700041F4801143F4801338D0A0FB02CE4FF039
:100580000005E1FB02E506F00042E0FB03E54FF069
:100590000006E1FB03569CF0000F18BF4EF0010E61
:1005A000A4F1FF04B6F5007F64F5407404D25FEA5D
:1005B0004E0E6D4146EB060642EAC62141EA555110
:1005C0004FEAC52040EA5E504FEACE2EB4F1FD0C52
:1005D00088BFBCF5E06F1ED8BEF1004F08BF5FEAD0
:1005E000500E50F1000041EB045170BD06F0004682
:1005F00046EA010140EA020081EA0301B4EB5C042F
:10060000C2BFD4EB0C0541EA045170BD41F4801126
:100610004FF0000E013C00F3AB8014F1360FDEBF4B
:10062000002001F0004170BDC4F10004203C35DA27
:100630000C341BDC04F11404C4F1200500FA05F3AA
:1006400020FA04F001FA05F240EA020001F000424B
:1006500021F0004110EBD37021FA04F642EB0601C1
:100660005EEA430E08BF20EAD37070BDC4F10C04EB
:10067000C4F1200500FA04F320FA05F001FA04F2AF
:1006800040EA020001F0004110EBD37041F100019B
:100690005EEA430E08BF20EAD37070BDC4F12005A6
:1006A00000FA05F24EEA020E20FA04F301FA05F20E
:1006B00043EA020321FA04F001F0004121FA04F2B6
:1006C00020EA020000EBD3705EEA430E08BF20EA86
:1006D000D37070BD94F0000F0FD101F000464000C0
:1006E00041EB010111F4801F08BF013CF7D041EA42
:1006F000060195F0000F18BF704703F00046520046
:1007000043EB030313F4801F08BF013DF7D043EA16
:100710000603704794EA0C0F0CEA135518BF95EACC
:100720000C0F0CD050EA410618BF52EA4306D1D153
:1007300081EA030101F000414FF0000070BD50EA72
:10074000410606BF1046194652EA430619D094EAFC
:100750000C0F02D150EA013613D195EA0C0F05D1E6
:1007600052EA03361CBF104619460AD181EA03013A
:1007700001F0004141F0FE4141F470014FF00000F2
:1007800070BD41F0FE4141F4780170BD70B54FF08D
:10079000FF0C4CF4E06C1CEA11541DBF1CEA13550D
:1007A00094EA0C0F95EA0C0F00F0A7F8A4EB0504EF
:1007B00081EA030E52EA03354FEA013100F08880E6
:1007C0004FEA03334FF0805545EA131343EA1263AF
:1007D0004FEA022245EA111545EA10654FEA002664
:1007E0000EF000419D4208BF964244F1FD0404F51D
:1007F000407402D25B084FEA3202B61A65EB030579
:100800005B084FEA32024FF480104FF4002CB6EB35
:10081000020E75EB030E22BFB61A754640EA0C00B5
:100820005B084FEA3202B6EB020E75EB030E22BFF5
:10083000B61A754640EA5C005B084FEA3202B6EB36
:10084000020E75EB030E22BFB61A754640EA9C00F5
:100850005B084FEA3202B6EB020E75EB030E22BFC5
:10086000B61A754640EADC0055EA060E18D04FEA83
:10087000051545EA16754FEA06164FEAC30343EA23
:1008800052734FEAC2025FEA1C1CC0D111F4801FF0
:100890000BD141EA00014FF000004FF0004CB6E7E9
:1008A00011F4801F04BF01430020B4F1FD0C88BF88
:1008B000BCF5E06F3FF6AFAEB5EB030C04BFB6EB93
:1008C000020C5FEA500C50F1000041EB045170BD86
:1008D0000EF0004E4EEA113114EB5C04C2BFD4EBB3
:1008E0000C0541EA045170BD41F480114FF0000E37
:1008F000013C90E645EA060E8DE60CEA135594EAB3
:100900000C0F08BF95EA0C0F3FF43BAF94EA0C0FB5
:100910000AD150EA01347FF434AF95EA0C0F7FF42A
:1009200025AF104619462CE795EA0C0F06D152EA7E
:1009300003353FF4FDAE1046194622E750EA410662
:1009400018BF52EA43067FF4C5AE50EA41047FF473
:100950000DAF52EA43057FF4EBAE12E74FF0FF3CD8
:1009600006E000BF4FF0010C02E000BF4FF0010CA9
:100970004DF804CD4FEA410C7FEA6C5C4FEA430C22
:1009800018BF7FEA6C5C1BD001B050EA410C0CBF71
:1009900052EA430C91EA030F02BF90EA020F0020D3
:1009A000704710F1000F91EA030F58BF994208BF3A
:1009B00090422CBFD8176FEAE37040F001007047F7
:1009C0004FEA410C7FEA6C5C02D150EA013C07D14E
:1009D0004FEA430C7FEA6C5CD6D152EA033CD3D099
:1009E0005DF8040B704700BF8446104662468C4693
:1009F0001946634600E000BF01B5FFF7B7FF0028C6
:100A000048BF10F1000F01BD4DF808EDFFF7F4FFEE
:100A10000CBF012000205DF808FB00BF4DF808ED79
:100A2000FFF7EAFF34BF012000205DF808FB00BF9C
:100A30004DF808EDFFF7E0FF94BF012000205DF8BE
:100A400008FB00BF4DF808EDFFF7CEFF94BF012073
:100A500000205DF808FB00BF4DF808EDFFF7C4FF6C
:100A600034BF012000205DF808FB00BF4FEA410CB5
:100A70007FEA6C5C02D150EA013C0AD14FEA430C98
:100A80007FEA6C5C02D152EA033C02D14FF00000D5
:100A900070474FF0010070474FEA410212F5001213
:100AA00015D211D56FF47873B3EB625212D94FEAB5
:100AB000C12343F0004343EA505311F0004F23FA9F
:100AC00002F018BF404270474FF00000704750EAF4
:100AD000013005D111F0004008BF6FF000407047B1
:100AE0004FF00000704700BF53B94AB9002908BF52
:100AF00000281CBF4FF0FF314FF0FF3000F0E2B88C
:100B0000ADF1080C6DE904CE11F088F8DDF804E0D1
:100B1000DDE9022304B0704700F1340191E83800A8
:100B20009C46A6464CF8045D90E8FF0FE54600BDE4
:100B300090EC210B704700BF80EC210B704700BF89
:100B400090EC200B704700BF80EC200B704700BF7B
:100B5000D0EC200B704700BFC0EC200B704700BFEB
:100B6000F0EC0201F0EC0211F0EC0221F0EC0231A9
:100B7000F0EC0241F0EC0251F0EC0261F0EC027199
:100B8000F0EC0281F0EC0291F0EC02A1F0EC02B189
:100B9000F0EC02C1F0EC02D1F0EC02E1F0EC02F179
:100BA000704700BFE0EC0201E0EC0211E0EC022132
:100BB000E0EC0231E0EC0241E0EC0251E0EC0261D9
:100BC000E0EC0271E0EC0281E0EC0291E0EC02A1C9
:100BD000E0EC02B1E0EC02C1E0EC02D1E0EC02E1B9
:100BE000E0EC02F1704700BFB0FC0181B0FC019164
:100BF000B0FC01A1B0FC01B1704700BFA0FC0181B5
:100C0000A0FC0191A0FC01A1A0FC01B1704700BFB4
:100C1000EC4600B52DE900502DE9FF1F4FF0000311
:100C20002DE90C0001A911F0ABFADDF840E012B09B
:100C3000704700BFEC4600B52DE900502DE9FF1FBD
:100C40004FF000032DE90C0001A911F0D5FADDF8F1
:100C500040E012B0704700BFEC4600B52DE90050EF
:100C60002DE9FF1F4FF000032DE90C0001A911F041
:100C7000E3FADDF840E012B0704700BFEC4600B583
:100C80002DE900502DE9FF1F4FF000032DE90C0066
:100C900001AB11F0A9FADDF840E012B0704700BFD7
:100CA000EC4600B52DE900502DE9FF1F4FF0000381
:100CB0002DE90C0001AA11F01FFBDDF840E012B095
:100CC000704700BF704700BF000000000000000038
:100CD0000000000000000000000000000000000014
:100CE00002780B78012A28BF9A4240F0D8806DE93B
:100CF000044540EA0104CDE902676FF0000C4FEAB9
:100D000044721AB380EA010414F0070F6BD100F0AB
:100D1000070420F0070004F0030521F007014FEA63
:100D2000C505F0E8042314F0040FF1E804670CFA99
:100D300005F462EA040266EA04060BD063EA0403DF
:100D4000624667EA0407664604E000BFF0E8042351
:100D5000F1E8046782FA4CF582EA0604A4FA8CF4FE
:100D60006CBB83FA4CF583EA0705A5FA8CF595B9B7
:100D700050E9022351E9026782FA4CF582EA06043F
:100D8000A4FA8CF483FA4CF583EA0705A5FA8CF5EE
:100D90002543DBD09CB92DBAB5FA85F424F00704BD
:100DA00027FA04F1DDE9026723FA04F303F0FF00F8
:100DB00001F0FF01FDE80445A0EB0100704724BAF3
:100DC000B4FA84F424F0070426FA04F1DDE902679A
:100DD00022FA04F202F0FF0001F0FF01FDE80445F1
:100DE000A0EB0100704714F0030F3CD110F0030496
:100DF00028D150F8082B51F8083B82FA4CF582EACA
:100E00000305A5FA8CF55DB950F8042C51F8043CA3
:100E100082FA4CF582EA0305A5FA8CF5002DE8D09C
:100E20002DBAB5FA85F424F0070423FA04F122FA66
:100E300004F202F0FF0001F0FF01FDE80445A0EB21
:100E4000010070474FEAC40420F0030050F8082B5B
:100E500021F0030151F8083B0CFA04F462EA0402A1
:100E600063EA0403C9E710F003041DD0A1EB0401F9
:100E700020F00300E40750F8042B06D012D28B7840
:100E80005FFAA2F4E41A06D12BB1CB785FFAB2F480
:100E9000E41A00D133B920465DF8104B7047A2EB3D
:100EA0000300704701F1040150F8042BCC0721F036
:100EB000030151F8043B48D824D222F07F4482FA3F
:100EC0004CF594EA1325A5FA8CF50AD165B951F8C9
:100ED000043B84EA0204B4EB036F0ED150F8042BF8
:100EE000EBE74FEA132355E035F07F454DD1087805
:100EF000FDE80445C0F1000070474FEA126203F0BC
:100F0000FF0347E002EA1C4482FA4CF594EA1345D9
:100F1000A5FA8CF50AD165B951F8043B84EA0204BC
:100F2000B4EB034F0CD150F8042BEBE74FEA13431B
:100F300030E015EA1C4528D10B884FEA124229E01F
:100F40004FEA124203EA1C4324E002F0FF0482FA53
:100F50004CF594EA1365A5FA8CF50AD165B951F8F8
:100F6000043B84EA0204B4EB032F09D150F8042BAC
:100F7000EBE74FEA13630DE015F0FF0F05D10B68A7
:100F80004FEA122223F07F4304E04FF00000FDE817
:100F90000445704712BA1BBA82FA4CF482EA030481
:100FA000A4FA8CF5B5FA85F402FA04F203FA04F314
:100FB0004FEA1260FDE80445A0EB1360704700BFE4
:100FC00001F0FF01102A2BDB10F0070F08D010F8FA
:100FD000013B013A8B422DD010F0070F42B3F6D1FE
:100FE000F0B441EA012141EA014122F007047FF017
:100FF00000070023F0E80256083C85EA010586EA6E
:10100000010685FA47F5A3FA87F586FA47F6A5FAA9
:1010100087F68EB9EED1F0BC01F0FF0102F00702B5
:1010200032B110F8013B013A83EA010313B1F8D160
:101030000020704701387047002D06BF3546033841
:10104000073815F0010F07D1013015F4807F02BF7A
:10105000013015F4C03F0130F0BC0138704700BFCB
:10106000844641EA000313F003036DD1403A41D3B3
:1010700051F8043B40F8043B51F8043B40F8043B72
:1010800051F8043B40F8043B51F8043B40F8043B62
:1010900051F8043B40F8043B51F8043B40F8043B52
:1010A00051F8043B40F8043B51F8043B40F8043B42
:1010B00051F8043B40F8043B51F8043B40F8043B32
:1010C00051F8043B40F8043B51F8043B40F8043B22
:1010D00051F8043B40F8043B51F8043B40F8043B12
:1010E00051F8043B40F8043B51F8043B40F8043B02
:1010F000403ABDD2303211D351F8043B40F8043BA2
:1011000051F8043B40F8043B51F8043B40F8043BE1
:1011100051F8043B40F8043B103AEDD20C3205D3B1
:1011200051F8043B40F8043B043AF9D2043208D0A9
:10113000D2071CBF11F8013B00F8013B01D30B881B
:1011400003806046704700BF082A13D38B078DD0F9
:1011500010F003038AD0C3F10403D21ADB071CBFCB
:1011600011F8013B00F8013B80D331F8023B20F835
:10117000023B7BE7043AD9D3013A11F8013B00F86E
:10118000013BF9D20B7803704B7843708B788370F6
:1011900060467047000000000000000000000000F2
:1011A000000000000000000000000000000000003F
:1011B000000000000000000000000000000000002F
:1011C00030B490F800F020F007016FF0000C10F040
:1011D000070491F820F040F048804FF000046FF0D1
:1011E0000700D1E9002391F840F000F1080082FAED
:1011F0004CF2A4FA8CF283FA4CF3A2FA8CF34BBBB8
:10120000D1E9022382FA4CF200F10800A4FA8CF230
:1012100083FA4CF3A2FA8CF3E3B9D1E9042382FAFE
:101220004CF200F10800A4FA8CF283FA4CF3A2FA13
:101230008CF37BB9D1E9062301F1200182FA4CF24B
:1012400000F10800A4FA8CF283FA4CF3A2FA8CF3B2
:10125000002BC6D0002A04BF04301A4612BAB2FAD4
:1012600082F200EBD20030BC7047D1E9002304F0D9
:101270000305C4F100004FEAC50514F0040F91F80E
:1012800040F00CFA05F562EA05021CBF63EA0503AB
:1012900062464FF00004AAE70348044B834202D0A1
:1012A000034B03B118477047DC060020DC06002022
:1012B000000000000548064B1B1AD90F01EBA301E3
:1012C000491002D0034B03B118477047DC060020D9
:1012D000DC0600200000000010B5064C237843B95E
:1012E000FFF7DAFF044B13B10448AFF3008001238A
:1012F000237010BDDC0600200000000030970108BC
:1013000008B5054B1BB105490548AFF30080BDE8A2
:101310000840FFF7CFBF00BF00000000E00600203C
:101320003097010808B503685B68984708BD00005E
:10133000024A0260024A0260704700BF309B010807
:101340006C9A0108024A0260024A0260704700BFBC
:10135000149B01086C9A0108024A0260024A02606A
:10136000704700BFF89A01086C9A0108024A0260AF
:10137000024A0260704700BFDC9A01086C9A0108BB
:10138000024A0260024A0260704700BFC09A010828
:101390006C9A0108024A0260024A0260704700BF6C
:1013A000A49A01086C9A0108024A0260024A02608B
:1013B000704700BF889A01086C9A010810B500F1C7
:1013C0000C04064A914205D00B460549184609F01F
:1013D00061FA08B1204610BD0024FBE7449B0108D8
:1013E0009897010810B500F10C04064A914205D007
:1013F0000B460549184609F04DFA08B1204610BDC4
:101400000024FBE7449B01089897010810B500F100
:101410001004064A914205D00B460549184609F0CA
:1014200039FA08B1204610BD0024FBE7449B0108AF
:101430009897010810B500F10C04064A914205D0B6
:101440000B460549184609F025FA08B1204610BD9B
:101450000024FBE7449B01089897010810B500F1B0
:101460000C04064A914205D00B460549184609F07E
:1014700011FA08B1204610BD0024FBE7449B010887
:101480009897010810B500F10C04064A914205D066
:101490000B460549184609F0FDF908B1204610BD74
:1014A0000024FBE7449B01089897010810B500F160
:1014B0001004064A914205D00B460549184609F02A
:1014C000E9F908B1204610BD0024FBE7449B010860
:1014D0009897010808B50C3007F0C2FC08BD000061
:1014E00010B50446044B0360044B036040F644010E
:1014F00008F054FB204610BD889A01086C9A010838
:1015000010B50446044B0360044B03606C2108F0E3
:1015100045FB204610BD00BFA49A01086C9A010843
:1015200010B50446044B0360044B0360782108F0B7
:1015300035FB204610BD00BFC09A01086C9A010817
:1015400010B50446044B0360044B036040F2BC41F9
:1015500008F024FB204610BDDC9A01086C9A0108B3
:1015600010B50446044B0360044B0360182108F0D7
:1015700015FB204610BD00BFF89A01086C9A0108BF
:1015800010B50446044B0360044B0360202108F0AF
:1015900005FB204610BD00BF149B01086C9A010892
:1015A00010B50446044B0360044B0360682108F047
:1015B000F5FA204610BD00BF309B01086C9A010867
:1015C00008B50C3006F05EFC08BD08B5103007F019
:1015D000E7F808BD08B50C3007F006FB08BD08B5F4
:1015E0000C3007F029FA08BD08B50C3007F0CBF92C
:1015F00008BD08B5103008F0CFF808BD012800D0AC
:10160000704738B54FF6FF73994200D038BD1D4C76
:101610001D4D224629461D4808F03CFA224629461F
:101620001B4808F037FA22461A491B4808F032FADC
:1016300022461A491A4808F02DFA1A4D2246294620
:10164000194808F027FA22462946184808F022FAD5
:1016500022462946164808F01DFA22462946154812
:1016600008F018FA22461449144808F013FA2246E2
:101670001349144808F00EFA22461349134808F09B
:1016800009FAC3E700000020F71600084C07002005
:1016900044070020271700083C0700200717000810
:1016A00034070020171700082C070020240700200B
:1016B0001C07002014070020571700080C07002003
:1016C000371700080407002047170008FC06002011
:1016D0004368013B43606BB910B5044603689B68DF
:1016E0009847A368013BA3601BB92368DB682046C9
:1016F000984710BD704710B50446406808B1FFF721
:10170000E7FF204610BD10B50446406808B1FFF75A
:10171000DFFF204610BD10B50446406808B1FFF752
:10172000D7FF204610BD10B50446406808B1FFF74A
:10173000CFFF204610BD10B50446406808B1FFF742
:10174000C7FF204610BD10B50446406808B1FFF73A
:10175000BFFF204610BD10B50446406808B1FFF732
:10176000B7FF204610BD000008B501460122024B1C
:10177000186807F08DFA08BD3C07002070B50546D3
:10178000144C206808F033F82668B5F90200FEF71B
:1017900069FE41EC100B304608F034F82668B5F9C4
:1017A0000400FEF75FFE41EC100B304608F06AF8CB
:1017B0002668B5F90600FEF755FE41EC100B3046E1
:1017C00008F09EF8206808F0D9F801F029FE024BD5
:1017D000186070BD0C070020F806002010B5044604
:1017E0004FF48041054802F0B9FDA3886288617812
:1017F0000348006807F052F910BD00BF0014024012
:101800000407002008B54188024B186807F0D5F896
:1018100008BD00BFFC06002010B50E4B186806F08E
:101820000AFC0D4B186807F0CBFF01F0F9FD0B4BDC
:101830001B68C01A0028B8BF4042B0F57A7F00DCB0
:1018400010BD054C206807F0D2FF206808F096F81C
:10185000F6E700BF340700200C070020F806002040
:1018600010B5C0B002E06846FFF77EFFC8234FF412
:10187000807269461648006807F091FA04464FF4F2
:101880000061144802F06AFD002CEFD04FF40061B3
:10189000104802F063FD9DF80030013B032BE5D8B2
:1018A00001A252F823F000BF67180008B918000819
:1018B000C1180008C91800086846FFF75FFFD5E7A0
:1018C0006846FFF78BFFD1E76846FFF79BFFCDE740
:1018D0003C0700200010024038B504460D460A4679
:1018E0000146054B186807F029FB2A462146034BA1
:1018F000186807F023FB38BD4C0700204407002080
:1019000010B504460146054B186807F0C8FA214691
:10191000034B186807F0C3FA10BD00BF4C07002046
:101920004407002010B504460146054B186807F02F
:10193000C8FA2146034B186807F0C3FA10BD00BF70
:101940004C0700204407002010B504460146054B13
:10195000186807F03DFB2146034B186807F038FB79
:1019600010BD00BF4C0700204407002008B5014609
:10197000024B186806F0BEFA08BD00BF340700200D
:1019800008B50146024B186806F0BFFA08BD00BF53
:101990003407002008B50368B3F1804F00D008BDBC
:1019A000024B186807F032F8F9E700BFFC06002088
:1019B00010B582B0044608680090002301934A687D
:1019C0004B6001920B602368009320606068626046
:1019D000019008B1FFF77CFE204602B010BD10B5A3
:1019E00082B0044608680090002301934A684B6067
:1019F00001920B6023680093206060686260019030
:101A000008B1FFF765FE204602B010BD10B582B0E8
:101A1000044608680090002301934A684B600192D5
:101A20000B6023680093206060686260019008B1D9
:101A3000FFF74EFE204602B010BD10B582B004463E
:101A400008680090002301934A684B6001920B6084
:101A500023680093206060686260019008B1FFF71E
:101A600037FE204602B010BD10B582B004460868AB
:101A70000090002301934A684B6001920B60236839
:101A80000093206060686260019008B1FFF720FE5B
:101A9000204602B010BD10B582B004460868009020
:101AA000002301934A684B6001920B602368009306
:101AB000206060686260019008B1FFF709FE20466F
:101AC00002B010BD10B582B0044608680090002333
:101AD00001934A684B6001920B6023680093206079
:101AE00060686260019008B1FFF7F2FD204602B025
:101AF00010BD10B50446406818B140F6440108F026
:101B00004DF8204610BD000000B585B003AB019331
:101B10000290054B0360054B036001A8FFF7E9FF46
:101B200005B05DF804FB00BF889A01086C9A0108B3
:101B300010B50446084B0360012343608360074BE4
:101B400040F80C3B116807F06DF903E0024B23608D
:101B500008F0CEF8204610BD6C9A0108889A01085A
:101B600010B50446406810B16C2108F017F8204603
:101B700010BD000000B585B003AB01930290054B8A
:101B80000360054B036001A8FFF7EAFF05B05DF8AD
:101B900004FB00BFA49A01086C9A010810B5044622
:101BA000084B0360012343608360074B40F80C3B04
:101BB000116806F04FF903E0024B236008F098F833
:101BC000204610BD6C9A0108A49A010810B504467D
:101BD000406810B1782107F0E1FF204610BD0000F9
:101BE00000B585B003AB01930290054B0360054B34
:101BF000036001A8FFF7EAFF05B05DF804FB00BF32
:101C0000C09A01086C9A010810B50446406818B1E2
:101C100040F2BC4107F0C2FF204610BD00B585B0C0
:101C200003AB01930290054B0360054B036001A8D1
:101C3000FFF7EAFF05B05DF804FB00BFDC9A01087E
:101C40006C9A010810B50446406810B1182107F0DD
:101C5000A5FF204610BD000000B585B003AB019381
:101C60000290054B0360054B036001A8FFF7EAFFF4
:101C700005B05DF804FB00BFF89A01086C9A0108F2
:101C800010B50446406810B1202107F087FF2046B8
:101C900010BD000000B585B003AB01930290054B69
:101CA0000360054B036001A8FFF7EAFF05B05DF88C
:101CB00004FB00BF149B01086C9A010810B5044690
:101CC00011461A460A4B0360012343608360094BA7
:101CD00040F80C3B029B1B881268096806F043FE23
:101CE00003E0034B236008F003F8204610BD00BF5B
:101CF0006C9A0108149B010810B50446406810B1A5
:101D0000682107F04BFF204610BD000000B585B0EC
:101D100003AB01930290054B0360054B036001A8E0
:101D2000FFF7EAFF05B05DF804FB00BF309B010838
:101D30006C9A010808B50A4B994206D840F644004F
:101D400001FB00F008F0F6FC08BD03F5772303F66D
:101D50005F43994201D909F025F809F013F800BF53
:101D60005E7C0F0038B504460D460022012128464E
:101D7000FFF7E0FF25606060204638BDF0B585B014
:101D800005460E461F4601A902A8FFF7EBFF039C7C
:101D90003A464FF000012046FFF7CAFE04E002A8D1
:101DA000FFF7A7FE07F0A4FF002303932C600C3479
:101DB000346002A8FFF79DFE284605B0F0BD10B5BF
:101DC00004461346002240F8042B0A462146FFF73A
:101DD000D5FF204610BD000008B5084B994205D834
:101DE0006C2001FB00F008F0A5FC08BD044B9942F3
:101DF00001D908F0D7FF08F0C5FF00BF4B682F01DD
:101E000097D05E0238B504460D46002201212846CF
:101E1000FFF7E2FF25606060204638BDF0B585B071
:101E200005460E461F4601A902A8FFF7EBFF039CDB
:101E30003A464FF000012046FFF7B0FE04E002A84A
:101E4000FFF78EFE07F054FF002303932C600C3441
:101E5000346002A8FFF784FE284605B0F0BD10B537
:101E600004461346002240F8042B0A462146FFF799
:101E7000D5FF204610BD000008B5084B994205D893
:101E8000C1EB0111C80008F055FC08BD044B994294
:101E900001D908F087FF08F075FF00BF111111018B
:101EA0002222220238B504460D460022012128468E
:101EB000FFF7E2FF25606060204638BD10B582B0B4
:101EC0000C6800944968019111B14C6801344C6070
:101ED0001B781268694606F06FFC019808B1FFF79D
:101EE000F7FB02B010BD019808B1FFF7F1FB07F056
:101EF000FFFE000010B5044611461A46084B036069
:101F0000012343608360074B40F8103B029BFFF7BF
:101F1000D5FF03E0024B236007F0EAFE204610BD28
:101F20006C9A0108C09A0108F0B587B005460E46C4
:101F30001F4603A904A8FFF7B5FF059C0D9B00935E
:101F40000C9B3A464FF000012046FFF7D3FF04E018
:101F500004A8FFF73BFE07F0CBFE002305932C609F
:101F60001034346004A8FFF731FE284607B0F0BDF6
:101F700030B583B00446002540F8045B069D01950A
:101F8000009313460A462146FFF7CEFF204603B0D2
:101F900030BD000008B50A4B994206D840F2BC405B
:101FA00001FB00F008F0C6FB08BD03F5D81303F6EB
:101FB0004B13994201D908F0F5FE08F0E3FE00BF8B
:101FC0004B091B0038B504460D4600220121284666
:101FD000FFF7E0FF25606060204638BD00B583B0A4
:101FE0000B6800934B68019313B15A6801325A6031
:101FF000694606F0D1FD019808B1FFF769FB03B00F
:102000005DF804FB019808B1FFF762FB07F070FE72
:1020100010B50446084B0360012343608360074BFF
:1020200040F80C3B1146FFF7D9FF03E0024B236059
:1020300007F05EFE204610BD6C9A0108DC9A01088C
:10204000F0B585B005460E461F4601A902A8FFF768
:10205000B9FF039C3A464FF000012046FFF7D8FF36
:1020600004E002A8FFF7D0FD07F042FE002303932F
:102070002C600C34346002A8FFF7C6FD284605B07A
:10208000F0BD10B504461346002240F8042B0A4662
:102090002146FFF7D5FF204610BD000008B5084BCC
:1020A000994205D801EB4101C80008F043FB08BD87
:1020B000044B994201D908F075FE08F063FE00BF99
:1020C00055555505AAAAAA0A38B504460D46002258
:1020D00001212846FFF7E2FF25606060204638BDF9
:1020E00000B583B00B6800934B68019313B15A6835
:1020F00001325A60694606F0E9FC019808B1FFF721
:10210000E7FA03B05DF804FB019808B1FFF7E0FAC5
:1021100007F0EEFD10B50446084B03600123436051
:102120008360074B40F80C3B1146FFF7D9FF03E0F3
:10213000024B236007F0DCFD204610BD6C9A0108BD
:10214000F89A0108F0B585B005460E461F4601A96C
:1021500002A8FFF7B9FF039C3A464FF00001204662
:10216000FFF7D8FF04E002A8FFF76CFD07F0C0FD01
:10217000002303932C600C34346002A8FFF762FD47
:10218000284605B0F0BD10B504461346002240F8BD
:10219000042B0A462146FFF7D5FF204610BD08B59F
:1021A000B1F1806F03D2480108F0C4FA08BDB1F163
:1021B000006F01D308F0F6FD08F0E4FD38B50446E1
:1021C0000D46002201212846FFF7E9FF25606060E7
:1021D000204638BDF0B587B005460E461F4603A918
:1021E00004A8FFF7EBFF059C0D9B00930C9B3A4660
:1021F0004FF000012046FFF761FD04E004A8FFF75F
:102200003FFD07F075FD002305932C600C3434600E
:1022100004A8FFF735FD284607B0F0BD30B583B000
:102220000446002540F8045B069D01950093134683
:102230000A462146FFF7CEFF204603B030BD00001E
:1022400008B5084B994205D8682001FB00F008F05A
:1022500071FA08BD044B994201D908F0A3FD08F0BA
:1022600091FD00BFB1133B016227760238B50446E9
:102270000D46002201212846FFF7E2FF256060603D
:10228000204638BD30B58BB00E9C0D68029549686C
:10229000039111B14D6801354D6011680491526888
:1022A000059212B15168013151601A6806925B685B
:1022B000079313B15A6801325A6023680893636820
:1022C000099313B15A6801325A6008AB009306AB08
:1022D00004AA02A907F074FB099808B1FFF7F8F9FE
:1022E000079808B1FFF7F4F9059808B1FFF7F0F97E
:1022F000039808B1FFF7ECF90BB030BD099808B1AD
:10230000FFF7E6F9079808B1FFF7E2F9059808B179
:10231000FFF7DEF9039808B1FFF7DAF907F0E8FCF8
:1023200010B582B0044611461A460A4B03600123D9
:1023300043608360084B40F8103B059B0093049B6F
:10234000FFF7A0FF03E0034B236007F0D1FC20461A
:1023500002B010BD6C9A0108309B0108F0B587B03F
:1023600005460E461F4603A904A8FFF77FFF059CFC
:102370000E9B01930D9B00930C9B3A464FF000017E
:102380002046FFF7CDFF04E004A8FFF7B5FC07F0F7
:10239000AFFC002305932C601034346004A8FFF7D1
:1023A000ABFC284607B0F0BD30B585B0044600252B
:1023B00040F8045B099D0295089D01950093134622
:1023C0000A462146FFF7CAFF204605B030BD00008F
:1023D000F0B52DED028BA9B07F4B069306AA03A999
:1023E00004A8FFF7ECFC04A97C48FFF7E1FA059884
:1023F00008B1FFF76DF9794B186806F002FD784BCC
:10240000099309AA03A907A8FFF7D9FC07A97548EA
:10241000FFF7CEFA089808B1FFF75AF9714B186820
:1024200006F0EFFC704B0C930CAA03A90AA8FFF767
:1024300016FD0AA96D48FFF7D2FA0B9808B1FFF70D
:1024400047F901230F938DF843300DF143030093B7
:102450000FAB664A03A90DA8FFF78AFD0DA96448D2
:10246000FFF7D4FA0E9808B1FFF732F9022313935D
:1024700001238DF853300DF15303009313AB5B4AE6
:1024800003A911A8FFF774FD11A95A48FFF7BEFA76
:10249000129808B1FFF71CF90323179301238DF855
:1024A00063300DF16303009317AB504A03A915A8DD
:1024B000FFF75EFD15A95048FFF7A8FA169808B176
:1024C000FFF706F904231B9301238DF873300DF1F8
:1024D000730300931BAB454A03A919A8FFF748FDF6
:1024E00019A94648FFF792FA1A9808B1FFF7F0F8D1
:1024F0003C4A03A91DA8FFF7C4FD1DA94048FFF7EA
:102500009CFA1E9808B1FFF7E3F8344A03A91FA804
:10251000FFF739FE1FA93B48FFF7A6FA209808B13C
:10252000FFF7D6F8384B2393384B24931023ADF89C
:1025300096300DF19603009324AB23AA03A921A89A
:10254000FFF76CFE21A93248FFF7A5FA229808B1DF
:10255000FFF7BEF8264C20689FED1D8B03689B6833
:10256000B0EE480AF0EE680A9847224D28680368E2
:102570009B68B0EE480AF0EE680A98471E4E306835
:1025800003689B68B0EE480AF0EE680A98471B4F54
:10259000386803689B68B0EE480AF0EE680A98470E
:1025A000019700962B46224603A926A8FFF7FCFEBA
:1025B00026A91848FFF786FA279808B1FFF788F888
:1025C00000F02EFF144B186029B0BDEC028BF0BD5B
:1025D0000000000000000000940A00204C070020CA
:1025E0000C0A002044070020800700203407002048
:1025F0002C070020240700201C07002014070020BF
:102600003C0700200407002044080020000002408E
:10261000FC0600200C070020F806002008B54FF645
:10262000FF710120FEF7EAFF08BD000008B50D4864
:102630000D4B03600523436000238360C3604FF4A8
:10264000003202614FF48002426103764376837662
:10265000C3760377437700F0E9FE00B908BD00F0C8
:102660007BFAFBE7800700200064004008B50D48B6
:102670000D4B03600523436000238360C3604FF468
:10268000003202614FF48002426103764376837622
:10269000C3760377437700F0C9FE00B908BD00F0A8
:1026A0005BFAFBE7580700200068004010B58AB0CD
:1026B0000023059306930793089309930368464AFA
:1026C000934204D0454A93423CD00AB010BD444ADC
:1026D000136801331360012B27D000240194414B70
:1026E0001A6B42F008021A631B6B03F00803019394
:1026F000019B032305930222069208930923099361
:1027000005A9394801F020FD22460121142001F0DD
:1027100097FA142001F0A4FA22460121152001F0B5
:102720008FFA152001F09CFACFE7002300932D4B80
:102730001A6C42F000721A641B6C03F00073009371
:10274000009BCAE700230293264B1A6C42F080627A
:102750001A641B6C03F080630293029B204A136887
:1027600001331360012B29D0002404941D4B1A6BF4
:1027700042F002021A631B6B03F002030493049BF2
:102780004FF4405305930223069303230893092330
:10279000099305A9154801F0D7FC224601214020E4
:1027A00001F04EFA402001F05BFA2246012141205F
:1027B00001F046FA412001F053FA86E70023039323
:1027C000084B1A6C42F000721A641B6C03F0007321
:1027D0000393039BC8E700BF00640040006800400B
:1027E0005407002000380240000C02400004024060
:1027F00010B582B0002400941A4B1A6B42F40012F8
:102800001A631A6B02F400120092009A01941A6B78
:1028100042F480021A631B6B03F480030193019B53
:1028200022460521112001F00BFA112001F018FABF
:1028300022460521392001F003FA392001F010FA6F
:10284000224605213A2001F0FBF93A2001F008FA6E
:1028500022460521452001F0F3F9452001F000FA58
:1028600002B010BD0038024008B5642003F0DCFA65
:10287000FBE708B5FEF7F4FF012003F0D5FAFBE70C
:1028800008B5074A0021074803F070FA064B1860A4
:10289000064A0021064803F069FA064B186008BD95
:1028A000889B010869280008AC070020649B010888
:1028B00073280008A80700202DE9F0438DB00024FC
:1028C0000794089409940A940B9400944D4B1A6B46
:1028D00042F010021A631A6B02F010020092009A82
:1028E00001941A6B42F040021A631A6B02F0400224
:1028F0000192019A02941A6B42F001021A631A6B58
:1029000002F001020292029A03941A6B42F0020250
:102910001A631A6B02F002020392039A04941A6B70
:1029200042F008021A631A6B02F008020492049A39
:1029300005941A6B42F080021A631A6B02F080024F
:102940000592059A06941A6B42F020021A631B6BDB
:1029500003F020030693069BDFF8B49001224FF4A6
:10296000FF71484601F0F4FCDFF8A8800122102135
:10297000404601F0EDFC244E22464FF40061304603
:1029800001F0E6FC214F22464FF48041384601F029
:10299000DFFC4FF4FF7307930125089509940A940F
:1029A00007A9484601F0D0FB102307930895099525
:1029B0000A9407A9404601F0C7FB4FF4C073079380
:1029C00002230893099403230A9308230B9307A96E
:1029D000304601F0B9FB4FF4006307930895099462
:1029E0000A9407A9304601F0AFFB4FF480430793E8
:1029F000089509940A9407A9384601F0A5FB0DB083
:102A0000BDE8F0830038024000100240001402408C
:102A1000001802400000024000B58BB0002305936F
:102A20000693012207920093019302930393049368
:102A300008920E2309936946024800F09DFD0BB0F1
:102A40005DF804FB8007002000B58BB001220592E1
:102A50000023069307920093019302930393049239
:102A600008920E2309936946024800F085FD0BB0D9
:102A70005DF804FB8007002000B58BB00E220592A4
:102A8000002306930121079100930193029303937E
:102A90000493089109926946024800F06DFD0BB05D
:102AA0005DF804FB5807002000B58BB00F23059399
:102AB000002306930122079200930193029303934C
:102AC000049208920E2309936946034800F054FDCE
:102AD0000BB05DF804FB00BF5807002038B5FFF7C6
:102AE0009BFFFFF7B1FFFFF7C7FFFFF7DDFF0D4DBE
:102AF000284600F0DDFD0C4C204600F0D9FD2B6887
:102B00005A6942F002025A615A6942F010025A614F
:102B100023685A6942F002025A615A6942F010026F
:102B20005A6138BD800700205807002010B50446C0
:102B30000268074B9A4204D02268064B9A4203D09F
:102B400010BD00F061FCF7E7FEF766FEF8E700BF96
:102B5000001000400014004072B6FEE700B595B0CA
:102B60003022002108A811F0BDFA0023039304933A
:102B70000593069307930193234A116C41F080510A
:102B80001164126C02F080520192019A02931F4B61
:102B90001A6842F440421A601B6803F440430293EF
:102BA000029B012308934FF48033099302230E9371
:102BB0004FF480020F9206221092B42211921293C7
:102BC0000423139308A801F011FCB0B901F0D0FB65
:102BD000A8B90F23039302230493002305934FF412
:102BE000A05306934FF480530793052103A801F0E7
:102BF0004DFE30B915B05DF804FBFFF7ADFFFFF7F0
:102C0000ABFFFFF7A9FF00BF003802400070004093
:102C100008B500F0DFFBFFF7A1FFFFF74DFEFFF760
:102C2000E7FDFFF703FD00F06DF900F03BFAFFF759
:102C30001DFD00F051FA00F0F5F900F069FAFFF718
:102C4000C7FBFFF74BFF054801F0ACFF03F060F84E
:102C5000FFF716FE03F06EF8FEE700BFFC0700204A
:102C600000B583B0002200920D4B596C41F48041B5
:102C70005964596C01F48041009100990192196CDA
:102C800041F0805119641B6C03F080530193019B48
:102C90000F216FF0010000F0D3FF03B05DF804FBDB
:102CA0000038024030B589B0044600230193214B1F
:102CB0001A6C42F010021A641B6C03F010030193AB
:102CC000019B02A903A801F0B7FE069BCBB901F056
:102CD00093FE0346184AA2FB03239B0C013B1748B3
:102CE000174A026040F2E732C2604360002303618A
:102CF0008360836102F0BEF8054630B1284609B012
:102D000030BD01F079FE4300E4E70C4801F04AFFD2
:102D100005460028F2D1362000F0A2FF0F2C01D981
:102D20000125EBE700222146362000F089FF054B04
:102D30001C60E3E70038024083DE1B43B00700203D
:102D4000001000400C000020FEE7FEE7FEE7FEE773
:102D5000FEE7704708B5024801F008F908BD00BF5A
:102D6000AC09002008B5024800F0FEFD08BD00BF18
:102D70008007002008B5024800F0F6FD08BD00BF3E
:102D80008007002008B5024801F053FF08BD00BFCE
:102D90004408002008B5024802F070FD08BD00BFDD
:102DA000500A002008B5024801F043FF08BD00BFEB
:102DB000B007002008B5024801F03BFF08BD00BF86
:102DC000FC07002008B5024801F0D0F808BD00BF9C
:102DD000EC08002008B5024801F0C8F808BD00BFA3
:102DE0004C09002008B5024800F0BEFD08BD00BF38
:102DF0005807002008B5024800F0B6FD08BD00BF26
:102E00005807002008B5024801F0B0F808BD00BF1F
:102E10008C08002008B5024802F030FD08BD00BF54
:102E20000C0A002008B5024802F028FD08BD00BFCA
:102E3000940A00200120704708B511F089FC162380
:102E400003604FF0FF3008BD08B54FF0FF31FFF7CA
:102E5000F3FFFEE770B50C461646002506E0AFF31B
:102E60000080214601F8010B01350C46B542F6DB26
:102E7000304670BD70B50C461646002504E014F8C7
:102E8000010BAFF300800135B542F8DB304670BD71
:102E90004FF0FF3070474FF400534B6000207047F5
:102EA000012070470020704710B503460C4A0D49B9
:102EB0000D48006840B10C4800680344521A934220
:102EC00006D8094A136010BD0748084C0460F2E7B1
:102ED00011F03EFC0C2303604FF0FF30F3E700BF1E
:102EE0000000032000040000F8070020185800200C
:102EF000034AD2F8883043F47003C2F88830704730
:102F000000ED00E000B583B00023009301930F486B
:102F10000F4A0260B4224260836040F2E732C2602E
:102F2000836101F0A7FF50B9002300930193694624
:102F3000064802F0ADF928B903B05DF804FBFFF7CD
:102F40000BFEF1E7FFF708FEF6E700BFFC070020E5
:102F5000001400400368B3F1804F00D0704700B503
:102F600083B00022019203F50E33196C41F0010188
:102F700019641B6C03F001030193019B05211C20C4
:102F800000F05EFE1C2000F06BFE03B05DF804FB59
:102F900002680E4B9A4200D0704700B583B0002201
:102FA000019203F50933196C41F0200119641B6C7F
:102FB00003F020030193019B0521372000F040FE20
:102FC000372000F04DFE03B05DF804FB0014004014
:102FD00000B587B0002301930293039304930593F4
:102FE0000368B3F1804F02D007B05DF804FB002303
:102FF00000930A4B1A6B42F001021A631B6B03F039
:1030000001030093009B20230193022302930123D9
:10301000059301A9024801F097F8E5E7003802405E
:103020000000024000B58BB0002308930993019380
:1030300002930393049305930693079318484FF064
:1030400080420260B3224260836040F2ED22C2609F
:103050000361836101F03AFFC0B90023089309932B
:1030600008A90F4802F014F998B9602301930022CF
:1030700002920392059201A9094801F08BFF58B909
:103080000748FFF7A5FF0BB05DF804FBFFF764FDF1
:10309000E3E7FFF761FDE8E7FFF75EFDF0E700BF5C
:1030A0004408002008B50A480A4B03604FF4E13396
:1030B000436000238360C36003610C22426183612B
:1030C000C36102F065FA00B908BDFFF745FDFBE7F3
:1030D000940A0020007C004008B50B480B4B0360AD
:1030E0004FF4612343604FF4805383600023C36037
:1030F00003610C2242618361C36102F049FA00B9A5
:1031000008BDFFF729FDFBE7500A00200010014031
:1031100008B50A480A4B03604FF46123436000235B
:103120008360C36003610C2242618361C36102F06A
:103130002FFA00B908BDFFF70FFDFBE70C0A0020CE
:103140000014014030B58DB0044600230793089366
:1031500009930A930B9303687A4A934208D07A4AF8
:1031600093424AD0794A934200F08B800DB030BD33
:1031700000250195764B1A6C42F000421A641A6CD5
:1031800002F000420192019A02951A6B42F010027D
:103190001A631B6B03F010030293029B0323079334
:1031A000022208920A9308230B9307A9694800F0AA
:1031B000CBFF6948694B03604FF020634360856033
:1031C000C5604FF48063036145618561C5614FF45B
:1031D00040330362456200F0D1FD58B95E4BA363F2
:1031E0009C6300220521532000F02AFD532000F0AB
:1031F00037FDBBE7FFF7B0FCF0E700250395544B24
:103200005A6C42F010025A645A6C02F01002039297
:10321000039A04951A6B42F002021A631B6B03F0C7
:1032200002030493049BC023079302230893032300
:103230000A9307230B9307A9494800F085FF4948E3
:10324000494B03604FF0006343608560C5604FF4F5
:103250008063036145618561C5610562456200F077
:103260008DFD58B93F4BA3639C63002205212520A7
:1032700000F0E6FC252000F0F3FC77E7FFF76CFC9C
:10328000F0E700250595324B5A6C42F020025A6453
:103290005A6C02F020020592059A06951A6B42F0CC
:1032A00040021A631B6B03F040030693069B4FF426
:1032B000844307930223089303230A9308230B9361
:1032C00007A92A4800F040FF29482A4B03604FF025
:1032D000206343608560C5604FF48063036145618E
:1032E0008561C5610562456200F048FD18BB204B51
:1032F000A3639C632048214B03604FF0206343602D
:10330000402383600023C3604FF480620261436105
:103310008361C3610362436200F030FD70B9164BF4
:1033200063639C6300220521472000F089FC47204D
:1033300000F096FC1AE7FFF70FFCD8E7FFF70CFC4C
:10334000EDE700BF007C0040001001400014014088
:103350000038024000100240AC090020A06002408A
:10336000000402404C090020406402400018024062
:10337000EC080020286402408C080020A064024071
:10338000DFF834D00D480E490E4A002302E0D4582D
:10339000C4500433C4188C42F9D30B4A0B4C00239D
:1033A00001E013600432A242FBD3FFF7A1FD11F04C
:1033B000D5F9FFF72DFC7047000003200000002026
:1033C000DC0600207CCF0108DC0600201858002015
:1033D000FEE7000008B50B4B1A6842F400721A6051
:1033E0001A6842F480621A601A6842F480721A60A5
:1033F000032000F013FC0F20FFF754FCFFF730FC14
:10340000002008BD003C0240034A1168034B1B78B2
:103410000B441360704700BFD80A0020080000204A
:10342000014B1868704700BFD80A0020002800F040
:10343000A18038B5044690F82030D3B122681368D3
:1034400043F001031360FFF7EBFF054623685A685A
:1034500012F0010F10D1FFF7E3FF401B0A28F5D946
:10346000636A43F400336362052384F8203001204B
:1034700038BDFFF71BF9E1E71A6822F002021A6073
:10348000FFF7CEFF054623685A6812F0020F0DD0F1
:10349000FFF7C6FF401B0A28F5D9636A43F40033DF
:1034A0006362052384F820300120E1E7227E012AAF
:1034B0003DD01A6822F080021A60637E012B3BD057
:1034C0002268136823F040031360A37E012B39D0D8
:1034D0002268136823F020031360E37E012B37D0AA
:1034E0002268136843F010031360237F012B35D04B
:1034F0002268136823F008031360637F012B33D025
:103500002268136823F004031360A368E26813437E
:1035100022691343626913436268013A21681343C5
:10352000CB6100206062012384F82030A0E71A6894
:1035300042F080021A60C0E72268136843F040033B
:103540001360C2E72268136843F020031360C4E7E6
:103550002268136823F010031360C6E7226813681B
:1035600043F008031360C8E72268136843F00403BC
:103570001360CAE70120704790F82030013BDBB2AE
:10358000012B05D9436A43F480234362012070472D
:1035900030B5464BD3F8002242F00102C3F80022B6
:1035A000D3F8002222F47C52C3F80022D3F8002280
:1035B000486A42EA0022C3F800224A6902F01F0268
:1035C000012000FA02F2D3F81C026FEA020C20EA92
:1035D0000200C3F81C02CB69C3B9344BD3F80C0208
:1035E0000CEA0000C3F80C028C884869CD6844EAF4
:1035F0000544483043F830408C68088840EA04406D
:103600004C6904F1480E03EBCE035860CB69012BE3
:103610001ED08B69002B33D12448D0F804320CEA39
:103620000303C0F804320B698BBB2048D0F8143276
:103630000CEA0303C0F814320B6A012B2ED01B4A8C
:10364000D2F8003223F00103C2F80032002030BD6E
:10365000164BD3F80C021043C3F80C028C8848694F
:103660000D6844EA0544483043F8304088894C6985
:103670008D6840EA0540483403EBC4035860C8E74E
:103680000A48D0F804321343C0F80432CBE70748A5
:10369000D0F814321343C0F81432CDE70349D1F8FF
:1036A0001C321343C1F81C32C9E700BF006400405C
:1036B00070B5044690F82050EDB2012D06D0436A53
:1036C00043F4002343620125284670BD022380F89D
:1036D00020300268136823F001031360FFF7A0FE97
:1036E000064623685B6813F0010F0CD0FFF798FEC5
:1036F000831B0A2BF5D9636A43F400336362052305
:1037000084F82030E0E700256562DDE730B590F809
:1037100020C00468A4680CF1FF3C5FFA8CFCBCF18B
:10372000010F6BD814F0E05F62D0C4F3016CBCF100
:10373000020F05D9436A43F400034362012062E0AB
:10374000012404FA0CF41C608B68002B3DD10D6839
:10375000CB68046843EA45550CF118031B01E5509A
:1037600003680C690CF1180E03EB0E135C600B7D03
:10377000012B35D0D17993791B0443EA0163517948
:1037800043EA012314790168234301EB0C11C1F8CA
:103790008C31D17893781B0443EA0163517843EA72
:1037A0000123117802680B4302EB0C12C2F8883136
:1037B00002680CF1180C4FEA0C1C52F80C3043F064
:1037C000010342F80C3000201DE04C6843EAC403BA
:1037D000CC6823430CF11804240105682B51BFE782
:1037E000036803EB0E13596841F480715960C1E717
:1037F000436A43F400134362012004E0436A43F444
:1038000080234362012030BD90F820C00CF1FF3CC2
:103810005FFA8CFCBCF1010F00F2958030B451B915
:103820000468E46814F0030F10D1436A43F40013F2
:103830004362012077E00468246914F0030F05D186
:10384000436A43F40013436201206CE001F11B045E
:10385000240105682C5904F004049460002C64D100
:1038600001F11B04240105682C59640D14600468DF
:1038700001F11B0C4FEA0C1C54F80C4004F002043C
:10388000D46004686444646804F00F04146104683C
:1038900064446468C4F307249461046864446468FD
:1038A000240C5461026802EB0112D2F8B8211A709C
:1038B000026802EB0112D2F8B821C2F307225A7053
:1038C000026802EB0112D2F8B821C2F307429A70E3
:1038D000026802EB0112D2F8B821120EDA70026807
:1038E00002EB0112D2F8BC211A71026802EB01123C
:1038F000D2F8BC21C2F307225A71026802EB01120E
:10390000D2F8BC21C2F307429A71026802EB01129D
:10391000D2F8BC21120EDA7179B90268D36843F08B
:103920002003D360002030BC704701F11B04240148
:1039300005682C59E408546099E70268136943F05C
:1039400020031361EEE7436A43F4802343620120BE
:1039500070477047704770477047704770477047AF
:1039600070477047704770472DE9F84F0546036868
:103970005C69D3F804809F68D3F80CB0D3F810A02A
:10398000D3F8189014F001063BD017F0010616D0BA
:1039900001229A6017F0020F08D117F0040F0CD122
:1039A00017F0080606D04FF4805608E0FFF7D1FF65
:1039B000002604E0FFF7D0FF01E04FF4006617F4A3
:1039C000807F0DD02B684FF480729A6017F4007FCF
:1039D00040F0868017F4806F00F0868046F4005631
:1039E00017F4803F0DD02B684FF480329A6017F4A3
:1039F000003F40F0838017F4802F00F0838046F46E
:103A0000004614F0080F07D01BF0100F04D046F446
:103A100000762B681022DA6014F0040F02D01BF03D
:103A2000080F79D114F0020F04D02B68DB6813F073
:103A3000030F78D114F0400F07D01AF0100F04D004
:103A400046F480662B6810221A6114F0200F02D011
:103A50001AF0080F6BD114F0100F04D02B681B69FB
:103A600013F0030F6AD114F4003F02D018F0100FC6
:103A700068D114F4803F02D018F0080F69D114F413
:103A8000004F7AD018F0040F74D014F4807F04D063
:103A900019F0010F01D046F0010614F4007F04D0A4
:103AA00019F0020F01D046F0020614F4806F04D022
:103AB00019F0040F01D046F0040614F4006F59D039
:103AC00019F0700956D0B9F1400F65D058D8B9F146
:103AD000200F5ED0B9F1300F42D146F0200644E00D
:103AE0002846FFF737FF7BE717F4006F02D046F454
:103AF000804675E72846FFF730FF71E72846FFF755
:103B00002AFF7EE717F4002F02D046F4803678E7CC
:103B10002846FFF723FF74E72B680822DA6028465F
:103B2000FFF71DFF7EE72846FDF720FF82E72B68A1
:103B300008221A612846FFF713FF8CE72846FDF795
:103B40001FFF90E72B6810225A602846FFF709FFF5
:103B50008FE72B6808225A602846FFF703FF8EE79D
:103B6000B9F1100F01D146F008062A68936923F0D5
:103B7000700393612B6804225A609EB9BDE8F88FE8
:103B8000B9F1500F0BD0B9F1600FEED146F4807649
:103B9000EBE746F01006E8E746F04006E5E746F0BA
:103BA0008006E2E76B6A33436B622846FFF7DBFE71
:103BB000E4E70000002808DB0901C9B200F1604019
:103BC00000F5614080F80013704700F00F00090114
:103BD000C9B2014B1954704714ED00E000B500F074
:103BE0000700C0F1070CBCF1040F28BF4FF0040C14
:103BF000031D062B0FD9C31E4FF0FF3E0EFA0CF02B
:103C000021EA000199400EFA03FE22EA0E0241EA7F
:103C100002005DF804FB0023EEE70000074AD368CA
:103C200023F4E0631B041B0C000200F4E060034378
:103C300043F0BF6343F40033D360704700ED00E00E
:103C400010B50446054BD868C0F30220FFF7C6FF45
:103C500001462046FFF7AEFF10BD00BF00ED00E0BB
:103C6000002807DB00F01F02400901239340024AAD
:103C700042F82030704700BF00E100E030B4056832
:103C80002C6824F480242C60046863608368402BD3
:103C900005D0036899600368DA6030BC7047036838
:103CA0009A600368D960F8E710B40368D9B2103994
:103CB0000C4AA2FB014212090B4CA25CC2655F29AF
:103CC00009D923F47F7323F0030304338365806DE4
:103CD0005DF8044B704723F47F7323F0030383657F
:103CE000F5E700BFABAAAAAAC49B0108836A826950
:103CF00092B9012B0AD0022B02D00BB100207047E1
:103D0000C36A13F0807F28D100207047C36AB3F1E3
:103D1000C07F24D000207047B2F5005F09D0022B8D
:103D200025D9032B25D1C36A13F0807F23D100202E
:103D30007047032B03D8DFE803F01404140A0020B3
:103D40007047C36A13F0807F0DD100207047C36AAB
:103D5000B3F1C07F09D000207047012070470120D7
:103D600070470120704701207047012070470120F3
:103D700070470020704701207047000070B504466E
:103D8000FFF74EFB002C5BD00546022384F835304C
:103D9000002384F834302268136823F00103136091
:103DA00023681A6812F0010F0AD0FFF739FB431B92
:103DB000052BF5D920236365032084F8350070BDF9
:103DC0001A68204911406268A0680243E068024313
:103DD0002069024360690243A0690243E06902432B
:103DE000206A02430A43616A04291ED01A602668C9
:103DF000756925F00705636A1D43042B07D1A36A83
:103E00001D43E36A1BB12046FFF770FF90B975614F
:103E10002046FFF749FFE26D3F2393408360002077
:103E20006065012384F83530C9E7E16A206B0143FE
:103E30000A43DBE740236365012084F83500BEE7D1
:103E40000120BCE73F8010F038B50446856D90F83E
:103E5000340001282BD0012084F8340094F8350078
:103E6000C0B2012804D0002384F83430022038BDC9
:103E7000022084F83500002060652046FFF7FEFE32
:103E8000E26D3F239340AB602268136843F0160352
:103E90001360236C23B12268136843F00803136096
:103EA0002268136843F0010313600020DFE702205B
:103EB000DDE770B50446866DFFF7B2FA94F8353049
:103EC000DBB2022B06D080236365002384F83430F4
:103ED000012070BD05462268136823F016031360A5
:103EE0002268536923F080035361236CE3B1226895
:103EF000136823F0080313602268136823F001039A
:103F0000136023681B6813F0010F11D0FFF788FAC4
:103F1000431B052BF5D920236365032084F8350066
:103F2000002384F83430D4E7A36C002BDFD1E3E71F
:103F3000E26D3F239340B360012384F835300020C5
:103F400084F83400C5E790F83530DBB2022B03D09B
:103F50008023436501207047052380F835300268CF
:103F6000136823F00103136000207047F0B583B09D
:103F7000044600230193724B1D68724BA3FB053569
:103F8000AD0A876D3E68C26D08239340334210D05E
:103F900003681A6812F0040F0BD01A6822F00402AA
:103FA0001A60C26D08239340BB60436D43F0010368
:103FB0004365E26D01239340334209D02268526980
:103FC00012F0800F04D0BB60636D43F002036365A1
:103FD000E26D04239340334209D02268126812F044
:103FE000020F04D0BB60636D43F004036365E26DB0
:103FF00010239340334224D02268126812F0080F35
:104000001FD0BB6023681A6812F4802F0DD01B6884
:1040100013F4002F04D1236C9BB12046984710E085
:10402000A36C73B1204698470BE01A6812F4807FA6
:1040300003D11A6822F008021A60236C0BB12046E3
:104040009847E26D20239340334255D0226812688E
:1040500012F0100F50D0BB6094F83530DBB2052B56
:104060000ED023681A6812F4802F33D01B6813F423
:10407000002F2AD1636C002B3ED0204698473BE0AE
:104080002268136823F0160313602268536923F033
:1040900080035361236CA3B12268136823F00803E3
:1040A0001360E26D3F239340BB60012384F83530F9
:1040B000002384F83430236D002B3FD020469847EE
:1040C0003CE0A36C002BE7D1EBE7E36BA3B1204608
:1040D000984711E01A6812F4807F09D11A6822F01B
:1040E00010021A60012384F83530002384F834303C
:1040F000E36B0BB120469847636DFBB1636D13F022
:10410000010F17D0052384F835302268136823F097
:1041100001031360019B01330193AB4204D8236870
:104120001B6813F0010FF5D1012384F8353000230B
:1041300084F83430E36C0BB12046984703B0F0BDEF
:1041400004000020B5814E1B00230F2B00F2F680E7
:1041500070B582B066E085684FEA430E032404FA26
:104160000EF425EA0405CC6804FA0EF42C438460AE
:10417000446824EA02044A68C2F300129A402243C7
:1041800042605DE0DC08083450F8242003F00705A5
:10419000AD004FF00F0E0EFA05FE22EA0E0E0A6970
:1041A000AA4042EA0E0240F824205DE0092200E025
:1041B000002202FA0EF22A430234614D45F824200F
:1041C000604A94686FEA0C0224EA0C054E6816F403
:1041D000801F01D04CEA04055A4CA560E46802EA4D
:1041E00004054E6816F4001F01D04CEA0405554C36
:1041F000E560646802EA04054E6816F4003F01D0E9
:104200004CEA04054F4C6560246822404D6815F463
:10421000803F01D04CEA04024A4C226001330F2B4C
:1042200000F28A8001229A400C6804EA020C32EA09
:104230000404F3D14C6804F00304013C012C8AD936
:104240004A6802F00302032A09D0C4685D00032211
:10425000AA4024EA02048A68AA402243C2604A684B
:1042600002F00302022A8DD004684FEA430E0322B3
:1042700002FA0EF224EA02044A6802F0030202FA89
:104280000EF2224302604A6812F4403FC6D0002278
:1042900001922D4A546C44F480445464526C02F4EC
:1042A00080420192019A9C08A51C254A52F825508B
:1042B00003F0030E4FEA8E0E0F2202FA0EF225EAE9
:1042C0000205224A90423FF473AF02F580629042A9
:1042D00022D002F58062904220D002F580629042A6
:1042E0001ED002F5806290421CD002F5806290429E
:1042F0001AD002F58062904218D002F58062904296
:1043000016D002F58062904214D002F5806290428D
:104310003FF44CAF0A224CE701224AE7022248E769
:10432000032246E7042244E7052242E7062240E74B
:1043300007223EE708223CE702B070BD704700BF8D
:1043400000380140003C01400038024000000240BB
:104350000AB181617047090481617047436901EACC
:10436000030221EA030141EA024181617047000032
:1043700010B582B000230193194B1A6C42F08052A1
:104380001A641B6C03F080530193019B154B0122AF
:104390001A64FFF745F80446134B5B6813F4803F3B
:1043A00008D1FFF73DF8001BB0F57A7FF4D9032060
:1043B00002B010BD0B4B01225A64FFF731F80446DE
:1043C000094B5B6813F4003F07D1FFF729F8001B86
:1043D000B0F57A7FF4D90320EAE70020E8E700BFD0
:1043E0000038024000000E4200700040002800F03B
:1043F000E08170B582B00446036813F0010F3BD032
:104400009F4B9B6803F00C03042B2CD09C4B9B68A8
:1044100003F00C03082B21D06368B3F5803F4FD025
:10442000B3F5A02F52D0964B1A6822F480321A604E
:104430001A6822F480221A606368002B50D0FEF7BD
:10444000EFFF05468E4B1B6813F4003F14D1FEF7B7
:10445000E7FF401B6428F5D90320B1E1884B5B6876
:1044600013F4800FD8D0864B1B6813F4003F03D0A1
:104470006368002B00F09F81236813F0020F54D073
:104480007F4B9B6813F00C0F3ED07D4B9B6803F075
:104490000C03082B33D0E368002B68D0794B012242
:1044A0001A60FEF7BDFF0546754B1B6813F0020F3F
:1044B00054D1FEF7B5FF401B0228F5D903207FE158
:1044C0006F4A136843F480331360B5E76C4B1A6886
:1044D00042F480221A601A6842F480321A60ABE714
:1044E000FEF79EFF0546664B1B6813F4003FC3D0E2
:1044F000FEF796FF401B6428F5D9032060E1604B6E
:104500005B6813F4800FC6D15D4B1B6813F0020F7C
:1045100003D0E368012B40F05081594A136823F01F
:10452000F803216943EAC1031360236813F0080FFD
:1045300042D063696BB3534B0122C3F8802EFEF760
:104540006FFF05464E4B5B6F13F0020F34D1FEF741
:1045500067FF401B0228F5D9032031E1484A136860
:1045600023F0F803216943EAC1031360DDE7454BFB
:1045700000221A60FEF754FF0546414B1B6813F0FA
:10458000020FD2D0FEF74CFF401B0228F5D90320C2
:1045900016E13C4B0022C3F8802EFEF741FF054692
:1045A000374B5B6F13F0020F06D0FEF739FF401B4D
:1045B0000228F5D9032003E1236813F0040F77D014
:1045C0002F4B1B6C13F0805F33D1002301932C4BD6
:1045D0001A6C42F080521A641B6C03F080530193F2
:1045E000019B0125284B1B6813F4807F23D0A3680F
:1045F000012B34D0052B38D0214B1A6F22F0010249
:104600001A671A6F22F004021A67A368002B3DD0C4
:10461000FEF706FF06461A4B1B6F13F0020F46D13A
:10462000FEF7FEFE801B41F288339842F3D9032047
:10463000C6E00025D6E7144A136843F4807313607C
:10464000FEF7EEFE0646104B1B6813F4807FCED1BA
:10465000FEF7E6FE801B0228F5D90320B0E0084AE9
:10466000136F43F001031367CFE7054B1A6F42F056
:1046700004021A671A6F42F001021A67C5E700BF09
:10468000003802400000474200700040FEF7C8FEBC
:104690000646524B1B6F13F0020F08D0FEF7C0FE08
:1046A000801B41F288339842F3D9032088E0EDB9AA
:1046B000A369002B00F08380484A926802F00C0244
:1046C000082A51D0022B17D0454B00221A66FEF75C
:1046D000A7FE0446414B1B6813F0007F42D0FEF753
:1046E0009FFE001B0228F5D9032069E03B4A136CAA
:1046F00023F080531364DBE7394B00221A66FEF780
:104700008FFE0546354B1B6813F0007F06D0FEF781
:1047100087FE401B0228F5D9032051E0E369226A95
:104720001343626A43EA8213A26A5208013A43EAD7
:104730000243E26A43EA0263284A5360284B01229B
:104740001A66FEF76DFE0446244B1B6813F0007FCB
:1047500006D1FEF765FE001B0228F5D903202FE0E5
:1047600000202DE000202BE0012B2BD01B4B5B68A1
:1047700003F48001E269914226D103F03F02216AED
:104780008A4223D1616A47F6C0721A40B2EB811F98
:104790001ED103F44031A26A5208013AB1EB024F34
:1047A00018D103F07063E26AB3EB026F14D10020FA
:1047B00006E001207047012002E0012000E0002017
:1047C00002B070BD0120FBE70120F9E70120F7E707
:1047D0000120F5E70120F3E70120F1E7003802406E
:1047E0000000474208B5264B9B6803F00C03042BDE
:1047F00041D0082B41D1224B5A6802F03F025B683E
:1048000013F4800F12D01E4B5968C1F388111D4854
:104810000023A1FB0001FCF767F9194B5B68C3F3A8
:10482000014301335B00B0FBF3F027E0144B586801
:10483000C0F388104FEA401CBCEB000C6EEB0E0E70
:104840004FEA8E1343EA9C634FEA8C11B1EB0C01E3
:1048500063EB0E03DB0043EA5173C90011EB000C5C
:1048600043F10003990200234FEA8C2041EA9C5156
:10487000FCF73AF9D1E7034800E0034808BD00BF60
:1048800000380240001BB7000024F400002800F0AC
:104890009B8070B50D4604464F4B1B6803F00F0319
:1048A0008B4208D2CBB24C4A1370136803F00F034B
:1048B0008B4240F08B80236813F0020F17D013F067
:1048C000040F04D0454A936843F4E053936023688F
:1048D00013F0080F04D0414A936843F46043936097
:1048E0003E4A936823F0F003A1680B43936023686A
:1048F00013F0010F32D06368012B21D09A1E012AD8
:1049000025D9364A126812F0020F61D033498A68FD
:1049100022F0030213438B60FEF782FD06462F4B05
:104920009B6803F00C036268B3EB820F16D0FEF7AE
:1049300077FD801B41F288339842F0D9032042E092
:10494000264A126812F4003FE0D101203BE0234ADE
:10495000126812F0007FD9D1012034E01E4B1B6891
:1049600003F00F03AB4207D9EAB21B4B1A701B6866
:1049700003F00F03AB422DD1236813F0040F06D0D0
:10498000164A936823F4E053E1680B43936023686D
:1049900013F0080F07D0114A936823F4604321698C
:1049A00043EAC1039360FFF71DFF0C4B9B68C3F301
:1049B00003130B4AD35CD8400A4B18600A4B1868A3
:1049C000FEF770F9002070BD012070470120FAE762
:1049D0000120F8E70120F6E7003C024000380240E1
:1049E000B49B0108040000200C000020014B186853
:1049F000704700BF0400002008B5FFF7F7FF044B25
:104A00009B68C3F38223034AD35CD84008BD00BF30
:104A100000380240AC9B010808B5FFF7E7FF044BE4
:104A20009B68C3F34233034AD35CD84008BD00BF40
:104A300000380240AC9B01080F2303600B4B9A68BF
:104A400002F0030242609A6802F0F00282609A6803
:104A500002F4E052C2609B68DB0803F4E053036198
:104A6000034B1B6803F00F030B60704700380240D4
:104A7000003C024030B4036A23F001030362036A7E
:104A80004268846924F0730C0C6844EA0C0423F037
:104A9000020C8B6843EA0C03114DA84203D005F5C4
:104AA0008065A84205D123F00803CD682B4323F08D
:104AB00004030B4DA84203D005F58065A84207D139
:104AC00022F440724D6945EA020C8A6942EA0C02FE
:104AD000426084614A684263036230BC704700BF31
:104AE0000000014030B4036A23F480730362036A58
:104AF0004268C46924F0730C0C6844EA0C0523F482
:104B000000738C6843EA0423114CA04203D004F5DF
:104B10008064A04206D123F40063CC6843EA0423F6
:104B200023F480630A4CA04203D004F58064A042C1
:104B300007D122F440524C6942EA04128C6942EADD
:104B400004124260C5614A68C263036230BC7047A8
:104B50000000014030B4036A23F480530362036A07
:104B60004468C26922F4E6420D6842EA052223F451
:104B700000538D6843EA0533094DA84203D005F57B
:104B80008065A84204D124F480444D6944EA851428
:104B90004460C2614A680264036230BC704700BF6F
:104BA0000000014090F83D30DBB2012B37D10223E9
:104BB00080F83D300268D36843F00103D360036896
:104BC000194A934220D0B3F1804F1DD0A2F57C4208
:104BD000934219D002F58062934215D002F58062AB
:104BE000934211D002F5784293420DD002F57052F3
:104BF000934209D0A2F59432934205D01A6842F04C
:104C000001021A60002070479A6802F00702062A23
:104C100007D01A6842F001021A6000207047012094
:104C200070470020704700BF000001407047704788
:104C3000704710B5044603681A6912F0020F11D0CC
:104C4000DA6812F0020F0DD06FF002021A61012330
:104C5000037703689B6913F0030F70D0FFF7E7FF3A
:104C60000023237723681A6912F0040F12D0DA6840
:104C700012F0040F0ED06FF004021A6102232377A2
:104C800023689B6913F4407F5FD02046FFF7CFFF76
:104C90000023237723681A6912F0080F12D0DA680C
:104CA00012F0080F0ED06FF008021A610423237768
:104CB0002368DB6913F0030F4ED02046FFF7B7FFE0
:104CC0000023237723681A6912F0100F12D0DA68D4
:104CD00012F0100F0ED06FF010021A610823237724
:104CE0002368DB6913F4407F3DD02046FFF79FFF28
:104CF0000023237723681A6912F0010F03D0DA68C2
:104D000012F0010F36D123681A6912F0800F03D018
:104D1000DA6812F0800F34D123681A6912F0400F5C
:104D200003D0DA6812F0400F32D123681A6912F00A
:104D3000200F03D0DA6812F0200F30D110BDFFF73A
:104D400075FF2046FCF726FE8AE72046FFF76EFF38
:104D50002046FCF71FFE9BE72046FFF767FF204633
:104D6000FCF718FEACE72046FFF760FF2046FCF793
:104D700011FEBDE76FF001021A612046FDF7D6FE75
:104D8000C1E76FF080021A61204600F0C8FAC3E75D
:104D90006FF040021A612046FFF74AFFC5E76FF047
:104DA00020021A61204600F0B9FAC7E70368304ACA
:104DB000904212D0B0F1804F0FD0A2F57C429042C9
:104DC0000BD002F58062904207D002F580629042DB
:104DD00003D002F57842904203D123F070034A6871
:104DE0001343234A90422AD0B0F1804F27D0A2F536
:104DF0007C42904223D002F5806290421FD002F59F
:104E0000806290421BD002F57842904217D002F5A2
:104E10007052904213D002F5806290420FD002F59A
:104E2000806290420BD0A2F59832904207D002F5F2
:104E30008062904203D002F58062904203D123F455
:104E40004073CA68134323F080034A691343036025
:104E50008B68C3620B688362054B984203D003F5ED
:104E60008063984201D10B6903630123436170475A
:104E70000000014040B310B5044690F83D30F3B156
:104E8000022384F83D30214651F8040BFFF78EFFD2
:104E9000012384F8463084F83E3084F83F3084F8AB
:104EA000403084F8413084F8423084F8433084F84C
:104EB000443084F8453084F83D30002010BD80F83F
:104EC0003C30FEF765F8DBE70120704740B310B5D2
:104ED000044690F83D30F3B1022384F83D3021467A
:104EE00051F8040BFFF762FF012384F8463084F881
:104EF0003E3084F83F3084F8403084F8413084F804
:104F0000423084F8433084F8443084F8453084F8E3
:104F10003D30002010BD80F83C30FEF71BF8DBE789
:104F20000120704730B4036A23F010030362036A60
:104F30004468826922F4E6420D6842EA052223F0C1
:104F400020038D6843EA0513114DA84203D005F5EF
:104F50008065A84206D123F08003CD6843EA05139B
:104F600023F040030A4DA84203D005F58065A8420E
:104F700007D124F440644D6944EA85048D6944EA0C
:104F80008504446082614A688263036230BC704772
:104F90000000014038B590F83C30012B66D0044643
:104FA0000D46012380F83C300C2A5AD8DFE802F085
:104FB000075959591B5959593059595944000068D2
:104FC000FFF758FD2268936943F008039361226854
:104FD000936923F0040393612268936929690B4361
:104FE000936100203EE00068FFF79CFF2268936910
:104FF00043F4006393612268936923F480639361AF
:1050000022689369296943EA01239361002029E01A
:105010000068FFF767FD2268D36943F00803D36196
:105020002268D36923F00403D3612268D369296914
:105030000B43D361002015E00068FFF78BFD226869
:10504000D36943F40063D3612268D36923F4806396
:10505000D3612268D369296943EA0123D36100201F
:1050600000E00120002384F83C3038BD0220FCE73A
:1050700001F01F014FF0010C0CFA01FC036A23EA56
:105080000C030362036A8A40134303627047000003
:1050900038B504460D4600220068FFF7E9FF236893
:1050A0001D4A934218D002F58062934214D02368BF
:1050B000196A41F21112114208D1196A40F24442B0
:1050C000114203D11A6822F001021A609DB901232E
:1050D00084F83E30002038BD196A41F211121142A5
:1050E000E5D1196A40F244421142E0D15A6C22F4EF
:1050F00000425A64DBE7042D05D0082D07D00123B8
:1051000084F84130E6E7012384F83F30E2E70123E9
:1051100084F84030DEE700BF0000014010B50446CF
:105120000846002948D194F83E30DBB2013B18BF55
:105130000123002B40F0A380002856D1022384F8DD
:105140003E302268D36843F00203D3600122014657
:105150002068FFF78DFF23684C4A934203D002F585
:105160008062934203D15A6C42F400425A6423682D
:10517000464A934278D0B3F1804F75D0A2F57C4275
:10518000934271D002F5806293426DD002F5806245
:10519000934269D002F57842934265D002F570528D
:1051A000934261D0A2F5943293425DD01A6842F0E6
:1051B00001021A60002061E0042908D008290DD0FE
:1051C00094F84130DBB2013B18BF0123B1E794F8FA
:1051D0003F30DBB2013B18BF0123AAE794F840300F
:1051E000DBB2013B18BF0123A3E7042824D0082821
:1051F0002BD0022384F841300C2842D801A353F865
:1052000020F000BF43510008835200088352000879
:10521000835200083F52000883520008835200085E
:10522000835200085152000883520008835200083C
:10523000835200085D520008022384F83F30226840
:10524000D36843F00403D36080E7022384F840303E
:105250002268D36843F00803D36077E72268D368F5
:1052600043F01003D36071E79A6802F00702062A40
:1052700009D01A6842F001021A60002010BD012016
:10528000FCE70120FAE70020F8E700BF000001403A
:1052900090F83C20012A3DD010B40346012280F84A
:1052A0003C20022280F83D2002685068946820F07B
:1052B000700C086840EA0C0050601A681648824278
:1052C0001AD0B2F1804F17D0A0F57C40824213D0A3
:1052D00000F5806082420FD000F5806082420BD0E2
:1052E00000F57840824207D000F57050824203D02A
:1052F000A0F59430824204D124F08004496821430F
:105300009160012283F83D20002083F83C005DF885
:10531000044B7047022070470000014070477047FF
:10532000026802F10C0353E8003F23F0C0030C3283
:1053300042E800310029F3D1202380F83D30704746
:10534000026802F10C0353E8003F23F490730C321F
:1053500042E800310029F3D1026802F1140353E856
:10536000003F23F00103143242E800310029F3D159
:10537000036B012B05D0202380F83E30002303630C
:105380007047026802F10C0353E8003F23F010035A
:105390000C3242E800310029F3D1ECE790F83D30BF
:1053A000DBB2212B01D0022070478368B3F5805F08
:1053B00017D0036A5A1C02621A7803685A60C38CB9
:1053C0009BB2013B9BB2C3844BB90268D36823F004
:1053D0008003D3600268D36843F04003D3600020A9
:1053E00070470369002BE4D1036A1B880268C3F38A
:1053F00008035360036A02330362E0E710B5044612
:105400000268136923F44053C1680B431361836836
:1054100002691A4343691A43C3691A430168CB6896
:1054200023F4164323F00C031343CB600268536943
:1054300023F4407381690B4353610368314A9342FB
:1054400006D002F58062934202D0FFF7D5FA01E060
:10545000FFF7E2FAE369B3F5004F29D00021031802
:1054600049411B1841F10001C90041EA5371DB00B9
:10547000181863684FEA83024FEA937341F1000101
:10548000FBF732FB204AA2FB00314909642303FBEE
:1054900011031B013233A2FB03235B0903F0F0026B
:1054A00002EB011203F00F03216813448B6010BD5F
:1054B0000023021843EB0301121841F10001C90057
:1054C00041EA5271D200101841F10001626892184D
:1054D0005B41FBF709FB0C4AA2FB0031490964233D
:1054E00003FB1103DB003233A2FB03235B095A00E9
:1054F00002F4F87202EB011203F00703216813446F
:105500008B60D4E7001001401F85EB512DE9F84373
:1055100005460F4616469946DDF820802B681C6824
:1055200037EA04040CBF01240024B4422DD1B8F1A1
:10553000FF3FF3D0B8F1000F05D0FDF771FFA0EBEE
:1055400009004045EAD92A6802F10C0353E8003FFC
:1055500023F4D0730C3242E800310029F3D12A68D9
:1055600002F1140353E8003F23F00103143242E830
:1055700000310029F3D1202385F83D3085F83E30F5
:10558000002385F83C30032000E00020BDE8F883CC
:1055900058B310B5044690F83D300BB3242384F87B
:1055A0003D302268D36823F40053D3602046FFF7D0
:1055B00025FF2268136923F490431361226853691D
:1055C00023F02A0353612268D36843F40053D36065
:1055D00000202064202384F83D3084F83E3010BD44
:1055E00080F83C30FDF7AEFDD8E7012070472DE98B
:1055F000F04182B01E4690F83D30DBB2202B54D1F2
:1056000004460D469046002953D0002A53D090F806
:105610003C30012B51D0012380F83C30002303643F
:10562000212380F83D30FDF7FBFE0746A4F82480D7
:10563000A4F82680A368B3F5805F05D04FF000087A
:10564000002384F83C3012E0236913B14FF00008C6
:10565000F6E7A8460025F3E738F8023B2268C3F3D3
:1056600008035360E28C92B2013A92B2E284E38C76
:105670009BB273B100963B46002280212046FFF783
:1056800045FFE0B9002DE7D015F8012B23685A60DB
:10569000E8E700963B46002240212046FFF736FF10
:1056A00078B9202384F83D3000E0022002B0BDE844
:1056B000F0810120FAE70120F8E70220F6E7032055
:1056C000F4E70320F2E790F83D30DBB2202B19D14C
:1056D000D1B1DAB190F83C30012B19D0012380F818
:1056E0003C3001628284C28400230364212280F85A
:1056F0003D2080F83C300168CA6842F08002CA60F0
:1057000018467047022070470120704701207047FB
:105710000220704708B50168CA6822F04002CA60DA
:10572000202280F83D20FCF7EBF8002008BD7047F0
:1057300010B5846B23685A6994F83D30DBB2212B95
:1057400010D023685A6902F0400294F83E30DBB270
:10575000222B11D0236C43F0100323642046FCF766
:10576000F3F810BD02F08002002AEAD00023E3849F
:105770002046FFF7D5FDE4E7002AEBD00023E385C0
:105780002046FFF7DDFDE5E708B5806B0023C38504
:10579000C384FCF7D9F808BD90F83E30DBB2222B69
:1057A00067D18368B3F5805F4DD0826AB3F5805FBF
:1057B00004D0002B54D10369002B51D103685B68DE
:1057C0001370836A01338362C38D9BB2013B9BB22A
:1057D000C385002B4FD100B583B00268D36823F096
:1057E0002003D3600268D36823F48073D360026817
:1057F000536923F001035361202380F83E30036B8B
:10580000012B33D100230363026802F10C0353E838
:10581000003F23F010030C3242E800310029F3D19D
:1058200003681A6812F0100F06D0002201921A685D
:1058300001925B680193019B818DFCF74DF800207C
:1058400003B05DF804FB0269002AAED1826A0368E6
:105850005B68C3F308031380836A02338362B3E790
:1058600003685B6803F07F031370AAE7FCF75AF83C
:10587000E5E70220704700207047000010B582B0B5
:10588000044602681368D068516913F00F0F09D1FC
:1058900013F0200F0CD010F0200F09D02046FFF796
:1058A0007BFF16E011F0010115D110F4907F12D1A9
:1058B000216B012979D013F0800F03D010F0800FF5
:1058C00040F0108113F0400F03D010F0400F40F073
:1058D0000D8102B010BD13F0010F06D010F4807FCF
:1058E00003D0226C42F00102226413F0040F04D0B2
:1058F00019B1226C42F00202226413F0020F04D0AC
:1059000019B1226C42F00402226413F0080F07D090
:1059100010F0200F00D119B1226C42F0080222646D
:10592000226C002AD5D013F0200F02D010F0200FE7
:1059300029D123685B6903F04003226C12F0080F41
:1059400000D163B32046FFF7FBFC23685B6913F0CB
:10595000400F20D0226802F1140353E8003F23F0E7
:105960004003143242E800310029F3D1A36B73B134
:10597000604A1A65A06BFEF7E6FA0028A9D0A06B72
:10598000036D9847A5E72046FFF706FFD1E72046BD
:10599000FBF7DAFF9DE72046FBF7D6FF99E72046A5
:1059A000FBF7D2FF0023236493E713F0100F82D09C
:1059B00010F0100F3FF47FAF0023019313680193A1
:1059C00053680193019B536913F0400F50D0A26BB1
:1059D00013685B689BB2002B3FF47BAFA18D9942AB
:1059E0007FF677AFE385D369B3F5807F37D0226840
:1059F00002F10C0353E8003F23F480730C3242E8B9
:105A000000310029F3D1226802F1140353E8003F6A
:105A100023F00103143242E800310029F3D1226857
:105A200002F1140353E8003F23F04003143242E82C
:105A300000310029F3D1202384F83E300023236372
:105A4000226802F10C0353E8003F23F010030C32EC
:105A500042E800310029F3D1A06BFEF72AFAA18DAC
:105A6000E38D9BB2C91A89B22046FBF735FF30E7B8
:105A7000A18DE38D9BB2C91A89B2E38D9BB2002B35
:105A80003FF427AF00293FF424AF226802F10C0352
:105A900053E8003F23F490730C3242E800300028B2
:105AA000F3D1226802F1140353E8003F23F001030D
:105AB000143242E800300028F3D1202384F83E302D
:105AC00000232363226802F10C0353E8003F23F014
:105AD00010030C3242E800300028F3D12046FBF7D7
:105AE000FBFEF6E62046FFF759FCF2E62046FFF7FC
